{
  "_format": "hh-sol-artifact-1",
  "contractName": "AcceptedNFT",
  "sourceName": "contracts/AcceptedNFT.sol",
  "abi": [
    {
      "inputs": [],
      "stateMutability": "payable",
      "type": "constructor"
    },
    {
      "anonymous": false,
      "inputs": [
        {
          "indexed": true,
          "internalType": "address",
          "name": "owner",
          "type": "address"
        },
        {
          "indexed": true,
          "internalType": "address",
          "name": "approved",
          "type": "address"
        },
        {
          "indexed": true,
          "internalType": "uint256",
          "name": "tokenId",
          "type": "uint256"
        }
      ],
      "name": "Approval",
      "type": "event"
    },
    {
      "anonymous": false,
      "inputs": [
        {
          "indexed": true,
          "internalType": "address",
          "name": "owner",
          "type": "address"
        },
        {
          "indexed": true,
          "internalType": "address",
          "name": "operator",
          "type": "address"
        },
        {
          "indexed": false,
          "internalType": "bool",
          "name": "approved",
          "type": "bool"
        }
      ],
      "name": "ApprovalForAll",
      "type": "event"
    },
    {
      "anonymous": false,
      "inputs": [
        {
          "indexed": true,
          "internalType": "address",
          "name": "previousOwner",
          "type": "address"
        },
        {
          "indexed": true,
          "internalType": "address",
          "name": "newOwner",
          "type": "address"
        }
      ],
      "name": "OwnershipTransferred",
      "type": "event"
    },
    {
      "anonymous": false,
      "inputs": [
        {
          "indexed": true,
          "internalType": "address",
          "name": "from",
          "type": "address"
        },
        {
          "indexed": true,
          "internalType": "address",
          "name": "to",
          "type": "address"
        },
        {
          "indexed": true,
          "internalType": "uint256",
          "name": "tokenId",
          "type": "uint256"
        }
      ],
      "name": "Transfer",
      "type": "event"
    },
    {
      "inputs": [
        {
          "internalType": "address",
          "name": "user_",
          "type": "address"
        },
        {
          "internalType": "uint256",
          "name": "quantity_",
          "type": "uint256"
        }
      ],
      "name": "airDropMany",
      "outputs": [],
      "stateMutability": "nonpayable",
      "type": "function"
    },
    {
      "inputs": [
        {
          "internalType": "address",
          "name": "user_",
          "type": "address"
        }
      ],
      "name": "airDropTo",
      "outputs": [],
      "stateMutability": "nonpayable",
      "type": "function"
    },
    {
      "inputs": [
        {
          "internalType": "address",
          "name": "to",
          "type": "address"
        },
        {
          "internalType": "uint256",
          "name": "tokenId",
          "type": "uint256"
        }
      ],
      "name": "approve",
      "outputs": [],
      "stateMutability": "nonpayable",
      "type": "function"
    },
    {
      "inputs": [
        {
          "internalType": "address",
          "name": "owner",
          "type": "address"
        }
      ],
      "name": "balanceOf",
      "outputs": [
        {
          "internalType": "uint256",
          "name": "",
          "type": "uint256"
        }
      ],
      "stateMutability": "view",
      "type": "function"
    },
    {
      "inputs": [],
      "name": "currentSupply",
      "outputs": [
        {
          "internalType": "uint256",
          "name": "",
          "type": "uint256"
        }
      ],
      "stateMutability": "view",
      "type": "function"
    },
    {
      "inputs": [
        {
          "internalType": "uint256",
          "name": "tokenId",
          "type": "uint256"
        }
      ],
      "name": "getApproved",
      "outputs": [
        {
          "internalType": "address",
          "name": "",
          "type": "address"
        }
      ],
      "stateMutability": "view",
      "type": "function"
    },
    {
      "inputs": [
        {
          "internalType": "address",
          "name": "owner",
          "type": "address"
        },
        {
          "internalType": "address",
          "name": "operator",
          "type": "address"
        }
      ],
      "name": "isApprovedForAll",
      "outputs": [
        {
          "internalType": "bool",
          "name": "",
          "type": "bool"
        }
      ],
      "stateMutability": "view",
      "type": "function"
    },
    {
      "inputs": [],
      "name": "isPublicMintEnabled",
      "outputs": [
        {
          "internalType": "bool",
          "name": "",
          "type": "bool"
        }
      ],
      "stateMutability": "view",
      "type": "function"
    },
    {
      "inputs": [],
      "name": "maxPerWallet",
      "outputs": [
        {
          "internalType": "uint256",
          "name": "",
          "type": "uint256"
        }
      ],
      "stateMutability": "view",
      "type": "function"
    },
    {
      "inputs": [],
      "name": "maxSupply",
      "outputs": [
        {
          "internalType": "uint256",
          "name": "",
          "type": "uint256"
        }
      ],
      "stateMutability": "view",
      "type": "function"
    },
    {
      "inputs": [
        {
          "internalType": "uint256",
          "name": "quantity_",
          "type": "uint256"
        }
      ],
      "name": "mint",
      "outputs": [],
      "stateMutability": "payable",
      "type": "function"
    },
    {
      "inputs": [],
      "name": "mintPrice",
      "outputs": [
        {
          "internalType": "uint256",
          "name": "",
          "type": "uint256"
        }
      ],
      "stateMutability": "view",
      "type": "function"
    },
    {
      "inputs": [],
      "name": "name",
      "outputs": [
        {
          "internalType": "string",
          "name": "",
          "type": "string"
        }
      ],
      "stateMutability": "view",
      "type": "function"
    },
    {
      "inputs": [],
      "name": "owner",
      "outputs": [
        {
          "internalType": "address",
          "name": "",
          "type": "address"
        }
      ],
      "stateMutability": "view",
      "type": "function"
    },
    {
      "inputs": [
        {
          "internalType": "uint256",
          "name": "tokenId",
          "type": "uint256"
        }
      ],
      "name": "ownerOf",
      "outputs": [
        {
          "internalType": "address",
          "name": "",
          "type": "address"
        }
      ],
      "stateMutability": "view",
      "type": "function"
    },
    {
      "inputs": [
        {
          "internalType": "uint256",
          "name": "quantity_",
          "type": "uint256"
        }
      ],
      "name": "publicMint",
      "outputs": [],
      "stateMutability": "payable",
      "type": "function"
    },
    {
      "inputs": [],
      "name": "renounceOwnership",
      "outputs": [],
      "stateMutability": "nonpayable",
      "type": "function"
    },
    {
      "inputs": [
        {
          "internalType": "address",
          "name": "from",
          "type": "address"
        },
        {
          "internalType": "address",
          "name": "to",
          "type": "address"
        },
        {
          "internalType": "uint256",
          "name": "tokenId",
          "type": "uint256"
        }
      ],
      "name": "safeTransferFrom",
      "outputs": [],
      "stateMutability": "nonpayable",
      "type": "function"
    },
    {
      "inputs": [
        {
          "internalType": "address",
          "name": "from",
          "type": "address"
        },
        {
          "internalType": "address",
          "name": "to",
          "type": "address"
        },
        {
          "internalType": "uint256",
          "name": "tokenId",
          "type": "uint256"
        },
        {
          "internalType": "bytes",
          "name": "data",
          "type": "bytes"
        }
      ],
      "name": "safeTransferFrom",
      "outputs": [],
      "stateMutability": "nonpayable",
      "type": "function"
    },
    {
      "inputs": [
        {
          "internalType": "address",
          "name": "operator",
          "type": "address"
        },
        {
          "internalType": "bool",
          "name": "approved",
          "type": "bool"
        }
      ],
      "name": "setApprovalForAll",
      "outputs": [],
      "stateMutability": "nonpayable",
      "type": "function"
    },
    {
      "inputs": [
        {
          "internalType": "string",
          "name": "baseTokenUri_",
          "type": "string"
        }
      ],
      "name": "setBaseTokenUri",
      "outputs": [],
      "stateMutability": "nonpayable",
      "type": "function"
    },
    {
      "inputs": [
        {
          "internalType": "bool",
          "name": "isPublicMintEnabled_",
          "type": "bool"
        }
      ],
      "name": "setIsPublicMintEnabled",
      "outputs": [],
      "stateMutability": "nonpayable",
      "type": "function"
    },
    {
      "inputs": [
        {
          "internalType": "uint256",
          "name": "newAntibotInterval",
          "type": "uint256"
        },
        {
          "internalType": "uint256",
          "name": "newMintLimitPerBlock",
          "type": "uint256"
        },
        {
          "internalType": "uint256",
          "name": "newMintStartBlockNumber",
          "type": "uint256"
        },
        {
          "internalType": "uint256",
          "name": "newMaxSaleAmount",
          "type": "uint256"
        },
        {
          "internalType": "uint256",
          "name": "newMintPrice",
          "type": "uint256"
        },
        {
          "internalType": "uint256",
          "name": "newMaxPerWallet",
          "type": "uint256"
        }
      ],
      "name": "setupPublicSale",
      "outputs": [],
      "stateMutability": "nonpayable",
      "type": "function"
    },
    {
      "inputs": [
        {
          "internalType": "uint256",
          "name": "newMaxSaleAmount",
          "type": "uint256"
        },
        {
          "internalType": "uint256",
          "name": "newMintPrice",
          "type": "uint256"
        },
        {
          "internalType": "uint256",
          "name": "newMaxPerWallet",
          "type": "uint256"
        }
      ],
      "name": "setupSale",
      "outputs": [],
      "stateMutability": "nonpayable",
      "type": "function"
    },
    {
      "inputs": [
        {
          "internalType": "bytes4",
          "name": "interfaceId",
          "type": "bytes4"
        }
      ],
      "name": "supportsInterface",
      "outputs": [
        {
          "internalType": "bool",
          "name": "",
          "type": "bool"
        }
      ],
      "stateMutability": "view",
      "type": "function"
    },
    {
      "inputs": [],
      "name": "symbol",
      "outputs": [
        {
          "internalType": "string",
          "name": "",
          "type": "string"
        }
      ],
      "stateMutability": "view",
      "type": "function"
    },
    {
      "inputs": [
        {
          "internalType": "uint256",
          "name": "index",
          "type": "uint256"
        }
      ],
      "name": "tokenByIndex",
      "outputs": [
        {
          "internalType": "uint256",
          "name": "",
          "type": "uint256"
        }
      ],
      "stateMutability": "view",
      "type": "function"
    },
    {
      "inputs": [
        {
          "internalType": "address",
          "name": "owner",
          "type": "address"
        },
        {
          "internalType": "uint256",
          "name": "index",
          "type": "uint256"
        }
      ],
      "name": "tokenOfOwnerByIndex",
      "outputs": [
        {
          "internalType": "uint256",
          "name": "",
          "type": "uint256"
        }
      ],
      "stateMutability": "view",
      "type": "function"
    },
    {
      "inputs": [
        {
          "internalType": "uint256",
          "name": "tokenId_",
          "type": "uint256"
        }
      ],
      "name": "tokenURI",
      "outputs": [
        {
          "internalType": "string",
          "name": "",
          "type": "string"
        }
      ],
      "stateMutability": "view",
      "type": "function"
    },
    {
      "inputs": [],
      "name": "totalSupply",
      "outputs": [
        {
          "internalType": "uint256",
          "name": "",
          "type": "uint256"
        }
      ],
      "stateMutability": "view",
      "type": "function"
    },
    {
      "inputs": [
        {
          "internalType": "address",
          "name": "from",
          "type": "address"
        },
        {
          "internalType": "address",
          "name": "to",
          "type": "address"
        },
        {
          "internalType": "uint256",
          "name": "tokenId",
          "type": "uint256"
        }
      ],
      "name": "transferFrom",
      "outputs": [],
      "stateMutability": "nonpayable",
      "type": "function"
    },
    {
      "inputs": [
        {
          "internalType": "address",
          "name": "newOwner",
          "type": "address"
        }
      ],
      "name": "transferOwnership",
      "outputs": [],
      "stateMutability": "nonpayable",
      "type": "function"
    },
    {
      "inputs": [
        {
          "internalType": "address",
          "name": "",
          "type": "address"
        }
      ],
      "name": "walletMints",
      "outputs": [
        {
          "internalType": "uint256",
          "name": "",
          "type": "uint256"
        }
      ],
      "stateMutability": "view",
      "type": "function"
    },
    {
      "inputs": [],
      "name": "withdraw",
      "outputs": [],
      "stateMutability": "nonpayable",
      "type": "function"
    },
    {
      "inputs": [],
      "name": "withdrawWallet",
      "outputs": [
        {
          "internalType": "address payable",
          "name": "",
          "type": "address"
        }
      ],
      "stateMutability": "view",
      "type": "function"
    }
  ],
  "bytecode": "0x6080604052600360135560036014556040518060400160405280600f81526020017f4163636570746564204d656d62657200000000000000000000000000000000008152506040518060400160405280600381526020017f41444d00000000000000000000000000000000000000000000000000000000008152506200009a6200008e6200013b60201b60201c565b6200014360201b60201c565b8160019080519060200190620000b292919062000207565b508060029080519060200190620000cb92919062000207565b50505066038d7ea4c68000600b819055506000600c81905550600a600d819055506001600e8190555033601160006101000a81548173ffffffffffffffffffffffffffffffffffffffff021916908373ffffffffffffffffffffffffffffffffffffffff1602179055506200031c565b600033905090565b60008060009054906101000a900473ffffffffffffffffffffffffffffffffffffffff169050816000806101000a81548173ffffffffffffffffffffffffffffffffffffffff021916908373ffffffffffffffffffffffffffffffffffffffff1602179055508173ffffffffffffffffffffffffffffffffffffffff168173ffffffffffffffffffffffffffffffffffffffff167f8be0079c531659141344cd1fd0a4f28419497f9722a3daafe3b4186f6b6457e060405160405180910390a35050565b8280546200021590620002b7565b90600052602060002090601f01602090048101928262000239576000855562000285565b82601f106200025457805160ff191683800117855562000285565b8280016001018555821562000285579182015b828111156200028457825182559160200191906001019062000267565b5b50905062000294919062000298565b5090565b5b80821115620002b357600081600090555060010162000299565b5090565b60006002820490506001821680620002d057607f821691505b60208210811415620002e757620002e6620002ed565b5b50919050565b7f4e487b7100000000000000000000000000000000000000000000000000000000600052602260045260246000fd5b614736806200032c6000396000f3fe6080604052600436106102045760003560e01c806370a0823111610118578063a22cb465116100a0578063c87b56dd1161006f578063c87b56dd14610723578063d5abeb0114610760578063e985e9c51461078b578063f0293fd3146107c8578063f2fde38b1461080557610204565b8063a22cb4651461067f578063b88d4fde146106a8578063bd8d9aef146106d1578063bf5f3f08146106fa57610204565b806385d178f4116100e757806385d178f4146105b95780638da5cb5b146105e457806395652cfa1461060f57806395d89b4114610638578063a0712d681461066357610204565b806370a0823114610511578063715018a61461054e578063771282f6146105655780638283268c1461059057610204565b80632db115441161019b578063453c23101161016a578063453c2310146104185780634f6ccce7146104435780636211485e146104805780636352211e146104a95780636817c76c146104e657610204565b80632db115441461037f5780632f745c591461039b5780633ccfd60b146103d857806342842e0e146103ef57610204565b8063095ea7b3116101d7578063095ea7b3146102d957806318160ddd146103025780632373ac221461032d57806323b872dd1461035657610204565b80630116bc2d1461020957806301ffc9a71461023457806306fdde0314610271578063081812fc1461029c575b600080fd5b34801561021557600080fd5b5061021e61082e565b60405161022b919061388b565b60405180910390f35b34801561024057600080fd5b5061025b600480360381019061025691906130d8565b610841565b604051610268919061388b565b60405180910390f35b34801561027d57600080fd5b506102866108bb565b60405161029391906138a6565b60405180910390f35b3480156102a857600080fd5b506102c360048036038101906102be919061316f565b61094d565b6040516102d09190613809565b60405180910390f35b3480156102e557600080fd5b5061030060048036038101906102fb9190613073565b610993565b005b34801561030e57600080fd5b50610317610aab565b6040516103249190613c28565b60405180910390f35b34801561033957600080fd5b50610354600480360381019061034f91906130af565b610ab8565b005b34801561036257600080fd5b5061037d60048036038101906103789190612f6d565b610add565b005b6103996004803603810190610394919061316f565b610b3d565b005b3480156103a757600080fd5b506103c260048036038101906103bd9190613073565b610e7c565b6040516103cf9190613c28565b60405180910390f35b3480156103e457600080fd5b506103ed610f21565b005b3480156103fb57600080fd5b5061041660048036038101906104119190612f6d565b610ffa565b005b34801561042457600080fd5b5061042d61101a565b60405161043a9190613c28565b60405180910390f35b34801561044f57600080fd5b5061046a6004803603810190610465919061316f565b611020565b6040516104779190613c28565b60405180910390f35b34801561048c57600080fd5b506104a760048036038101906104a29190613073565b6110b7565b005b3480156104b557600080fd5b506104d060048036038101906104cb919061316f565b6111e9565b6040516104dd9190613809565b60405180910390f35b3480156104f257600080fd5b506104fb61129b565b6040516105089190613c28565b60405180910390f35b34801561051d57600080fd5b5061053860048036038101906105339190612f08565b6112a1565b6040516105459190613c28565b60405180910390f35b34801561055a57600080fd5b50610563611359565b005b34801561057157600080fd5b5061057a61136d565b6040516105879190613c28565b60405180910390f35b34801561059c57600080fd5b506105b760048036038101906105b29190613198565b611373565b005b3480156105c557600080fd5b506105ce611395565b6040516105db9190613824565b60405180910390f35b3480156105f057600080fd5b506105f96113bb565b6040516106069190613809565b60405180910390f35b34801561061b57600080fd5b506106366004803603810190610631919061312a565b6113e4565b005b34801561064457600080fd5b5061064d611402565b60405161065a91906138a6565b60405180910390f35b61067d6004803603810190610678919061316f565b611494565b005b34801561068b57600080fd5b506106a660048036038101906106a19190613037565b61166b565b005b3480156106b457600080fd5b506106cf60048036038101906106ca9190612fbc565b611681565b005b3480156106dd57600080fd5b506106f860048036038101906106f391906131e7565b6116e3565b005b34801561070657600080fd5b50610721600480360381019061071c9190612f08565b61171d565b005b34801561072f57600080fd5b5061074a6004803603810190610745919061316f565b61187d565b60405161075791906138a6565b60405180910390f35b34801561076c57600080fd5b506107756118f9565b6040516107829190613c28565b60405180910390f35b34801561079757600080fd5b506107b260048036038101906107ad9190612f31565b6118ff565b6040516107bf919061388b565b60405180910390f35b3480156107d457600080fd5b506107ef60048036038101906107ea9190612f08565b611993565b6040516107fc9190613c28565b60405180910390f35b34801561081157600080fd5b5061082c60048036038101906108279190612f08565b6119ab565b005b600f60009054906101000a900460ff1681565b60007f780e9d63000000000000000000000000000000000000000000000000000000007bffffffffffffffffffffffffffffffffffffffffffffffffffffffff1916827bffffffffffffffffffffffffffffffffffffffffffffffffffffffff191614806108b457506108b382611a2f565b5b9050919050565b6060600180546108ca90613ed9565b80601f01602080910402602001604051908101604052809291908181526020018280546108f690613ed9565b80156109435780601f1061091857610100808354040283529160200191610943565b820191906000526020600020905b81548152906001019060200180831161092657829003601f168201915b5050505050905090565b600061095882611b11565b6005600083815260200190815260200160002060009054906101000a900473ffffffffffffffffffffffffffffffffffffffff169050919050565b600061099e826111e9565b90508073ffffffffffffffffffffffffffffffffffffffff168373ffffffffffffffffffffffffffffffffffffffff161415610a0f576040517f08c379a0000000000000000000000000000000000000000000000000000000008152600401610a0690613b88565b60405180910390fd5b8073ffffffffffffffffffffffffffffffffffffffff16610a2e611b5c565b73ffffffffffffffffffffffffffffffffffffffff161480610a5d5750610a5c81610a57611b5c565b6118ff565b5b610a9c576040517f08c379a0000000000000000000000000000000000000000000000000000000008152600401610a9390613b08565b60405180910390fd5b610aa68383611b64565b505050565b6000600980549050905090565b610ac0611c1d565b80600f60006101000a81548160ff02191690831515021790555050565b610aee610ae8611b5c565b82611c9b565b610b2d576040517f08c379a0000000000000000000000000000000000000000000000000000000008152600401610b2490613bc8565b60405180910390fd5b610b38838383611d30565b505050565b600f60009054906101000a900460ff16610b8c576040517f08c379a0000000000000000000000000000000000000000000000000000000008152600401610b8390613968565b60405180910390fd5b43601354601260003373ffffffffffffffffffffffffffffffffffffffff1673ffffffffffffffffffffffffffffffffffffffff16815260200190815260200160002054610bda9190613cfc565b10610c1a576040517f08c379a0000000000000000000000000000000000000000000000000000000008152600401610c1190613908565b60405180910390fd5b601554431015610c5f576040517f08c379a0000000000000000000000000000000000000000000000000000000008152600401610c5690613ae8565b60405180910390fd5b600081118015610c7157506014548111155b610cb0576040517f08c379a0000000000000000000000000000000000000000000000000000000008152600401610ca790613a08565b60405180910390fd5b600b5481610cbe9190613d83565b3414610cff576040517f08c379a0000000000000000000000000000000000000000000000000000000008152600401610cf6906138c8565b60405180910390fd5b600d5481600c54610d109190613cfc565b1115610d51576040517f08c379a0000000000000000000000000000000000000000000000000000000008152600401610d48906139c8565b60405180910390fd5b600e5481601260003373ffffffffffffffffffffffffffffffffffffffff1673ffffffffffffffffffffffffffffffffffffffff16815260200190815260200160002054610d9f9190613cfc565b1115610de0576040517f08c379a0000000000000000000000000000000000000000000000000000000008152600401610dd790613a68565b60405180910390fd5b60005b81811015610e345760006001600c54610dfc9190613cfc565b9050600c6000815480929190610e1190613f3c565b9190505550610e203382611f97565b508080610e2c90613f3c565b915050610de3565b5043601260003373ffffffffffffffffffffffffffffffffffffffff1673ffffffffffffffffffffffffffffffffffffffff1681526020019081526020016000208190555050565b6000610e87836112a1565b8210610ec8576040517f08c379a0000000000000000000000000000000000000000000000000000000008152600401610ebf90613928565b60405180910390fd5b600760008473ffffffffffffffffffffffffffffffffffffffff1673ffffffffffffffffffffffffffffffffffffffff168152602001908152602001600020600083815260200190815260200160002054905092915050565b610f29611c1d565b6000601160009054906101000a900473ffffffffffffffffffffffffffffffffffffffff1673ffffffffffffffffffffffffffffffffffffffff1647604051610f71906137f4565b60006040518083038185875af1925050503d8060008114610fae576040519150601f19603f3d011682016040523d82523d6000602084013e610fb3565b606091505b5050905080610ff7576040517f08c379a0000000000000000000000000000000000000000000000000000000008152600401610fee90613c08565b60405180910390fd5b50565b61101583838360405180602001604052806000815250611681565b505050565b600e5481565b600061102a610aab565b821061106b576040517f08c379a000000000000000000000000000000000000000000000000000000000815260040161106290613ba8565b60405180910390fd5b600982815481106110a5577f4e487b7100000000000000000000000000000000000000000000000000000000600052603260045260246000fd5b90600052602060002001549050919050565b6110bf611c1d565b60008111611102576040517f08c379a00000000000000000000000000000000000000000000000000000000081526004016110f990613ac8565b60405180910390fd5b60005b818110156111565760006001600c5461111e9190613cfc565b9050600c600081548092919061113390613f3c565b91905055506111428482611fb5565b50808061114e90613f3c565b915050611105565b5080601260008473ffffffffffffffffffffffffffffffffffffffff1673ffffffffffffffffffffffffffffffffffffffff168152602001908152602001600020546111a29190613cfc565b601260008473ffffffffffffffffffffffffffffffffffffffff1673ffffffffffffffffffffffffffffffffffffffff168152602001908152602001600020819055505050565b6000806003600084815260200190815260200160002060009054906101000a900473ffffffffffffffffffffffffffffffffffffffff169050600073ffffffffffffffffffffffffffffffffffffffff168173ffffffffffffffffffffffffffffffffffffffff161415611292576040517f08c379a000000000000000000000000000000000000000000000000000000000815260040161128990613b68565b60405180910390fd5b80915050919050565b600b5481565b60008073ffffffffffffffffffffffffffffffffffffffff168273ffffffffffffffffffffffffffffffffffffffff161415611312576040517f08c379a000000000000000000000000000000000000000000000000000000000815260040161130990613a88565b60405180910390fd5b600460008373ffffffffffffffffffffffffffffffffffffffff1673ffffffffffffffffffffffffffffffffffffffff168152602001908152602001600020549050919050565b611361611c1d565b61136b600061218f565b565b600c5481565b61137b611c1d565b82600d8190555081600b8190555080600e81905550505050565b601160009054906101000a900473ffffffffffffffffffffffffffffffffffffffff1681565b60008060009054906101000a900473ffffffffffffffffffffffffffffffffffffffff16905090565b6113ec611c1d565b8181601091906113fd929190612d4a565b505050565b60606002805461141190613ed9565b80601f016020809104026020016040519081016040528092919081815260200182805461143d90613ed9565b801561148a5780601f1061145f5761010080835404028352916020019161148a565b820191906000526020600020905b81548152906001019060200180831161146d57829003601f168201915b5050505050905090565b600f60009054906101000a900460ff166114e3576040517f08c379a00000000000000000000000000000000000000000000000000000000081526004016114da90613968565b60405180910390fd5b600b54816114f19190613d83565b3414611532576040517f08c379a0000000000000000000000000000000000000000000000000000000008152600401611529906138c8565b60405180910390fd5b600d5481600c546115439190613cfc565b1115611584576040517f08c379a000000000000000000000000000000000000000000000000000000000815260040161157b906139c8565b60405180910390fd5b600e5481601260003373ffffffffffffffffffffffffffffffffffffffff1673ffffffffffffffffffffffffffffffffffffffff168152602001908152602001600020546115d29190613cfc565b1115611613576040517f08c379a000000000000000000000000000000000000000000000000000000000815260040161160a90613aa8565b60405180910390fd5b60005b818110156116675760006001600c5461162f9190613cfc565b9050600c600081548092919061164490613f3c565b91905055506116533382611f97565b50808061165f90613f3c565b915050611616565b5050565b61167d611676611b5c565b8383612253565b5050565b61169261168c611b5c565b83611c9b565b6116d1576040517f08c379a00000000000000000000000000000000000000000000000000000000081526004016116c890613bc8565b60405180910390fd5b6116dd848484846123c0565b50505050565b6116eb611c1d565b85601381905550846014819055508360158190555082600d8190555081600b8190555080600e81905550505050505050565b611725611c1d565b600e546001601260008473ffffffffffffffffffffffffffffffffffffffff1673ffffffffffffffffffffffffffffffffffffffff168152602001908152602001600020546117749190613cfc565b11156117b5576040517f08c379a00000000000000000000000000000000000000000000000000000000081526004016117ac906138e8565b60405180910390fd5b60006001600c546117c69190613cfc565b9050600c60008154809291906117db90613f3c565b91905055506117ea8282611fb5565b6001601260008473ffffffffffffffffffffffffffffffffffffffff1673ffffffffffffffffffffffffffffffffffffffff168152602001908152602001600020546118369190613cfc565b601260008473ffffffffffffffffffffffffffffffffffffffff1673ffffffffffffffffffffffffffffffffffffffff168152602001908152602001600020819055505050565b60606118888261241c565b6118c7576040517f08c379a00000000000000000000000000000000000000000000000000000000081526004016118be90613be8565b60405180910390fd5b60106118d283612488565b6040516020016118e39291906137c5565b6040516020818303038152906040529050919050565b600d5481565b6000600660008473ffffffffffffffffffffffffffffffffffffffff1673ffffffffffffffffffffffffffffffffffffffff16815260200190815260200160002060008373ffffffffffffffffffffffffffffffffffffffff1673ffffffffffffffffffffffffffffffffffffffff16815260200190815260200160002060009054906101000a900460ff16905092915050565b60126020528060005260406000206000915090505481565b6119b3611c1d565b600073ffffffffffffffffffffffffffffffffffffffff168173ffffffffffffffffffffffffffffffffffffffff161415611a23576040517f08c379a0000000000000000000000000000000000000000000000000000000008152600401611a1a90613988565b60405180910390fd5b611a2c8161218f565b50565b60007f80ac58cd000000000000000000000000000000000000000000000000000000007bffffffffffffffffffffffffffffffffffffffffffffffffffffffff1916827bffffffffffffffffffffffffffffffffffffffffffffffffffffffff19161480611afa57507f5b5e139f000000000000000000000000000000000000000000000000000000007bffffffffffffffffffffffffffffffffffffffffffffffffffffffff1916827bffffffffffffffffffffffffffffffffffffffffffffffffffffffff1916145b80611b0a5750611b0982612635565b5b9050919050565b611b1a8161241c565b611b59576040517f08c379a0000000000000000000000000000000000000000000000000000000008152600401611b5090613b68565b60405180910390fd5b50565b600033905090565b816005600083815260200190815260200160002060006101000a81548173ffffffffffffffffffffffffffffffffffffffff021916908373ffffffffffffffffffffffffffffffffffffffff160217905550808273ffffffffffffffffffffffffffffffffffffffff16611bd7836111e9565b73ffffffffffffffffffffffffffffffffffffffff167f8c5be1e5ebec7d5bd14f71427d1e84f3dd0314c0f7b2291e5b200ac8c7c3b92560405160405180910390a45050565b611c25611b5c565b73ffffffffffffffffffffffffffffffffffffffff16611c436113bb565b73ffffffffffffffffffffffffffffffffffffffff1614611c99576040517f08c379a0000000000000000000000000000000000000000000000000000000008152600401611c9090613b48565b60405180910390fd5b565b600080611ca7836111e9565b90508073ffffffffffffffffffffffffffffffffffffffff168473ffffffffffffffffffffffffffffffffffffffff161480611ce95750611ce881856118ff565b5b80611d2757508373ffffffffffffffffffffffffffffffffffffffff16611d0f8461094d565b73ffffffffffffffffffffffffffffffffffffffff16145b91505092915050565b8273ffffffffffffffffffffffffffffffffffffffff16611d50826111e9565b73ffffffffffffffffffffffffffffffffffffffff1614611da6576040517f08c379a0000000000000000000000000000000000000000000000000000000008152600401611d9d906139a8565b60405180910390fd5b600073ffffffffffffffffffffffffffffffffffffffff168273ffffffffffffffffffffffffffffffffffffffff161415611e16576040517f08c379a0000000000000000000000000000000000000000000000000000000008152600401611e0d90613a28565b60405180910390fd5b611e2183838361269f565b611e2c600082611b64565b6001600460008573ffffffffffffffffffffffffffffffffffffffff1673ffffffffffffffffffffffffffffffffffffffff1681526020019081526020016000206000828254611e7c9190613ddd565b925050819055506001600460008473ffffffffffffffffffffffffffffffffffffffff1673ffffffffffffffffffffffffffffffffffffffff1681526020019081526020016000206000828254611ed39190613cfc565b92505081905550816003600083815260200190815260200160002060006101000a81548173ffffffffffffffffffffffffffffffffffffffff021916908373ffffffffffffffffffffffffffffffffffffffff160217905550808273ffffffffffffffffffffffffffffffffffffffff168473ffffffffffffffffffffffffffffffffffffffff167fddf252ad1be2c89b69c2b068fc378daa952ba7f163c4a11628f55a4df523b3ef60405160405180910390a4611f928383836127b3565b505050565b611fb18282604051806020016040528060008152506127b8565b5050565b600073ffffffffffffffffffffffffffffffffffffffff168273ffffffffffffffffffffffffffffffffffffffff161415612025576040517f08c379a000000000000000000000000000000000000000000000000000000000815260040161201c90613b28565b60405180910390fd5b61202e8161241c565b1561206e576040517f08c379a0000000000000000000000000000000000000000000000000000000008152600401612065906139e8565b60405180910390fd5b61207a6000838361269f565b6001600460008473ffffffffffffffffffffffffffffffffffffffff1673ffffffffffffffffffffffffffffffffffffffff16815260200190815260200160002060008282546120ca9190613cfc565b92505081905550816003600083815260200190815260200160002060006101000a81548173ffffffffffffffffffffffffffffffffffffffff021916908373ffffffffffffffffffffffffffffffffffffffff160217905550808273ffffffffffffffffffffffffffffffffffffffff16600073ffffffffffffffffffffffffffffffffffffffff167fddf252ad1be2c89b69c2b068fc378daa952ba7f163c4a11628f55a4df523b3ef60405160405180910390a461218b600083836127b3565b5050565b60008060009054906101000a900473ffffffffffffffffffffffffffffffffffffffff169050816000806101000a81548173ffffffffffffffffffffffffffffffffffffffff021916908373ffffffffffffffffffffffffffffffffffffffff1602179055508173ffffffffffffffffffffffffffffffffffffffff168173ffffffffffffffffffffffffffffffffffffffff167f8be0079c531659141344cd1fd0a4f28419497f9722a3daafe3b4186f6b6457e060405160405180910390a35050565b8173ffffffffffffffffffffffffffffffffffffffff168373ffffffffffffffffffffffffffffffffffffffff1614156122c2576040517f08c379a00000000000000000000000000000000000000000000000000000000081526004016122b990613a48565b60405180910390fd5b80600660008573ffffffffffffffffffffffffffffffffffffffff1673ffffffffffffffffffffffffffffffffffffffff16815260200190815260200160002060008473ffffffffffffffffffffffffffffffffffffffff1673ffffffffffffffffffffffffffffffffffffffff16815260200190815260200160002060006101000a81548160ff0219169083151502179055508173ffffffffffffffffffffffffffffffffffffffff168373ffffffffffffffffffffffffffffffffffffffff167f17307eab39ab6107e8899845ad3d59bd9653f200f220920489ca2b5937696c31836040516123b3919061388b565b60405180910390a3505050565b6123cb848484611d30565b6123d784848484612813565b612416576040517f08c379a000000000000000000000000000000000000000000000000000000000815260040161240d90613948565b60405180910390fd5b50505050565b60008073ffffffffffffffffffffffffffffffffffffffff166003600084815260200190815260200160002060009054906101000a900473ffffffffffffffffffffffffffffffffffffffff1673ffffffffffffffffffffffffffffffffffffffff1614159050919050565b606060008214156124d0576040518060400160405280600181526020017f30000000000000000000000000000000000000000000000000000000000000008152509050612630565b600082905060005b600082146125025780806124eb90613f3c565b915050600a826124fb9190613d52565b91506124d8565b60008167ffffffffffffffff811115612544577f4e487b7100000000000000000000000000000000000000000000000000000000600052604160045260246000fd5b6040519080825280601f01601f1916602001820160405280156125765781602001600182028036833780820191505090505b5090505b600085146126295760018261258f9190613ddd565b9150600a8561259e9190613f85565b60306125aa9190613cfc565b60f81b8183815181106125e6577f4e487b7100000000000000000000000000000000000000000000000000000000600052603260045260246000fd5b60200101907effffffffffffffffffffffffffffffffffffffffffffffffffffffffffffff1916908160001a905350600a856126229190613d52565b945061257a565b8093505050505b919050565b60007f01ffc9a7000000000000000000000000000000000000000000000000000000007bffffffffffffffffffffffffffffffffffffffffffffffffffffffff1916827bffffffffffffffffffffffffffffffffffffffffffffffffffffffff1916149050919050565b6126aa8383836129aa565b600073ffffffffffffffffffffffffffffffffffffffff168373ffffffffffffffffffffffffffffffffffffffff1614156126ed576126e8816129af565b61272c565b8173ffffffffffffffffffffffffffffffffffffffff168373ffffffffffffffffffffffffffffffffffffffff161461272b5761272a83826129f8565b5b5b600073ffffffffffffffffffffffffffffffffffffffff168273ffffffffffffffffffffffffffffffffffffffff16141561276f5761276a81612b65565b6127ae565b8273ffffffffffffffffffffffffffffffffffffffff168273ffffffffffffffffffffffffffffffffffffffff16146127ad576127ac8282612ca8565b5b5b505050565b505050565b6127c28383611fb5565b6127cf6000848484612813565b61280e576040517f08c379a000000000000000000000000000000000000000000000000000000000815260040161280590613948565b60405180910390fd5b505050565b60006128348473ffffffffffffffffffffffffffffffffffffffff16612d27565b1561299d578373ffffffffffffffffffffffffffffffffffffffff1663150b7a0261285d611b5c565b8786866040518563ffffffff1660e01b815260040161287f949392919061383f565b602060405180830381600087803b15801561289957600080fd5b505af19250505080156128ca57506040513d601f19601f820116820180604052508101906128c79190613101565b60015b61294d573d80600081146128fa576040519150601f19603f3d011682016040523d82523d6000602084013e6128ff565b606091505b50600081511415612945576040517f08c379a000000000000000000000000000000000000000000000000000000000815260040161293c90613948565b60405180910390fd5b805181602001fd5b63150b7a0260e01b7bffffffffffffffffffffffffffffffffffffffffffffffffffffffff1916817bffffffffffffffffffffffffffffffffffffffffffffffffffffffff1916149150506129a2565b600190505b949350505050565b505050565b600980549050600a600083815260200190815260200160002081905550600981908060018154018082558091505060019003906000526020600020016000909190919091505550565b60006001612a05846112a1565b612a0f9190613ddd565b9050600060086000848152602001908152602001600020549050818114612af4576000600760008673ffffffffffffffffffffffffffffffffffffffff1673ffffffffffffffffffffffffffffffffffffffff168152602001908152602001600020600084815260200190815260200160002054905080600760008773ffffffffffffffffffffffffffffffffffffffff1673ffffffffffffffffffffffffffffffffffffffff168152602001908152602001600020600084815260200190815260200160002081905550816008600083815260200190815260200160002081905550505b6008600084815260200190815260200160002060009055600760008573ffffffffffffffffffffffffffffffffffffffff1673ffffffffffffffffffffffffffffffffffffffff16815260200190815260200160002060008381526020019081526020016000206000905550505050565b60006001600980549050612b799190613ddd565b90506000600a6000848152602001908152602001600020549050600060098381548110612bcf577f4e487b7100000000000000000000000000000000000000000000000000000000600052603260045260246000fd5b906000526020600020015490508060098381548110612c17577f4e487b7100000000000000000000000000000000000000000000000000000000600052603260045260246000fd5b906000526020600020018190555081600a600083815260200190815260200160002081905550600a6000858152602001908152602001600020600090556009805480612c8c577f4e487b7100000000000000000000000000000000000000000000000000000000600052603160045260246000fd5b6001900381819060005260206000200160009055905550505050565b6000612cb3836112a1565b905081600760008573ffffffffffffffffffffffffffffffffffffffff1673ffffffffffffffffffffffffffffffffffffffff168152602001908152602001600020600083815260200190815260200160002081905550806008600084815260200190815260200160002081905550505050565b6000808273ffffffffffffffffffffffffffffffffffffffff163b119050919050565b828054612d5690613ed9565b90600052602060002090601f016020900481019282612d785760008555612dbf565b82601f10612d9157803560ff1916838001178555612dbf565b82800160010185558215612dbf579182015b82811115612dbe578235825591602001919060010190612da3565b5b509050612dcc9190612dd0565b5090565b5b80821115612de9576000816000905550600101612dd1565b5090565b6000612e00612dfb84613c68565b613c43565b905082815260208101848484011115612e1857600080fd5b612e23848285613e97565b509392505050565b600081359050612e3a816146a4565b92915050565b600081359050612e4f816146bb565b92915050565b600081359050612e64816146d2565b92915050565b600081519050612e79816146d2565b92915050565b600082601f830112612e9057600080fd5b8135612ea0848260208601612ded565b91505092915050565b60008083601f840112612ebb57600080fd5b8235905067ffffffffffffffff811115612ed457600080fd5b602083019150836001820283011115612eec57600080fd5b9250929050565b600081359050612f02816146e9565b92915050565b600060208284031215612f1a57600080fd5b6000612f2884828501612e2b565b91505092915050565b60008060408385031215612f4457600080fd5b6000612f5285828601612e2b565b9250506020612f6385828601612e2b565b9150509250929050565b600080600060608486031215612f8257600080fd5b6000612f9086828701612e2b565b9350506020612fa186828701612e2b565b9250506040612fb286828701612ef3565b9150509250925092565b60008060008060808587031215612fd257600080fd5b6000612fe087828801612e2b565b9450506020612ff187828801612e2b565b935050604061300287828801612ef3565b925050606085013567ffffffffffffffff81111561301f57600080fd5b61302b87828801612e7f565b91505092959194509250565b6000806040838503121561304a57600080fd5b600061305885828601612e2b565b925050602061306985828601612e40565b9150509250929050565b6000806040838503121561308657600080fd5b600061309485828601612e2b565b92505060206130a585828601612ef3565b9150509250929050565b6000602082840312156130c157600080fd5b60006130cf84828501612e40565b91505092915050565b6000602082840312156130ea57600080fd5b60006130f884828501612e55565b91505092915050565b60006020828403121561311357600080fd5b600061312184828501612e6a565b91505092915050565b6000806020838503121561313d57600080fd5b600083013567ffffffffffffffff81111561315757600080fd5b61316385828601612ea9565b92509250509250929050565b60006020828403121561318157600080fd5b600061318f84828501612ef3565b91505092915050565b6000806000606084860312156131ad57600080fd5b60006131bb86828701612ef3565b93505060206131cc86828701612ef3565b92505060406131dd86828701612ef3565b9150509250925092565b60008060008060008060c0878903121561320057600080fd5b600061320e89828a01612ef3565b965050602061321f89828a01612ef3565b955050604061323089828a01612ef3565b945050606061324189828a01612ef3565b935050608061325289828a01612ef3565b92505060a061326389828a01612ef3565b9150509295509295509295565b61327981613e23565b82525050565b61328881613e11565b82525050565b61329781613e35565b82525050565b60006132a882613cae565b6132b28185613cc4565b93506132c2818560208601613ea6565b6132cb81614072565b840191505092915050565b60006132e182613cb9565b6132eb8185613ce0565b93506132fb818560208601613ea6565b61330481614072565b840191505092915050565b600061331a82613cb9565b6133248185613cf1565b9350613334818560208601613ea6565b80840191505092915050565b6000815461334d81613ed9565b6133578186613cf1565b945060018216600081146133725760018114613383576133b6565b60ff198316865281860193506133b6565b61338c85613c99565b60005b838110156133ae5781548189015260018201915060208101905061338f565b838801955050505b50505092915050565b60006133cc601083613ce0565b91506133d782614083565b602082019050919050565b60006133ef601b83613ce0565b91506133fa826140ac565b602082019050919050565b6000613412601283613ce0565b915061341d826140d5565b602082019050919050565b6000613435602b83613ce0565b9150613440826140fe565b604082019050919050565b6000613458603283613ce0565b91506134638261414d565b604082019050919050565b600061347b601383613ce0565b91506134868261419c565b602082019050919050565b600061349e602683613ce0565b91506134a9826141c5565b604082019050919050565b60006134c1602583613ce0565b91506134cc82614214565b604082019050919050565b60006134e4600983613ce0565b91506134ef82614263565b602082019050919050565b6000613507601c83613ce0565b91506135128261428c565b602082019050919050565b600061352a602183613ce0565b9150613535826142b5565b604082019050919050565b600061354d602483613ce0565b915061355882614304565b604082019050919050565b6000613570601983613ce0565b915061357b82614353565b602082019050919050565b6000613593601383613ce0565b915061359e8261437c565b602082019050919050565b60006135b6602983613ce0565b91506135c1826143a5565b604082019050919050565b60006135d9601783613ce0565b91506135e4826143f4565b602082019050919050565b60006135fc600c83613ce0565b91506136078261441d565b602082019050919050565b600061361f600f83613ce0565b915061362a82614446565b602082019050919050565b6000613642603e83613ce0565b915061364d8261446f565b604082019050919050565b6000613665602083613ce0565b9150613670826144be565b602082019050919050565b6000613688600583613cf1565b9150613693826144e7565b600582019050919050565b60006136ab602083613ce0565b91506136b682614510565b602082019050919050565b60006136ce601883613ce0565b91506136d982614539565b602082019050919050565b60006136f1602183613ce0565b91506136fc82614562565b604082019050919050565b6000613714600083613cd5565b915061371f826145b1565b600082019050919050565b6000613737602c83613ce0565b9150613742826145b4565b604082019050919050565b600061375a602e83613ce0565b915061376582614603565b604082019050919050565b600061377d601583613ce0565b915061378882614652565b602082019050919050565b60006137a0600f83613ce0565b91506137ab8261467b565b602082019050919050565b6137bf81613e8d565b82525050565b60006137d18285613340565b91506137dd828461330f565b91506137e88261367b565b91508190509392505050565b60006137ff82613707565b9150819050919050565b600060208201905061381e600083018461327f565b92915050565b60006020820190506138396000830184613270565b92915050565b6000608082019050613854600083018761327f565b613861602083018661327f565b61386e60408301856137b6565b8181036060830152613880818461329d565b905095945050505050565b60006020820190506138a0600083018461328e565b92915050565b600060208201905081810360008301526138c081846132d6565b905092915050565b600060208201905081810360008301526138e1816133bf565b9050919050565b60006020820190508181036000830152613901816133e2565b9050919050565b6000602082019050818103600083015261392181613405565b9050919050565b6000602082019050818103600083015261394181613428565b9050919050565b600060208201905081810360008301526139618161344b565b9050919050565b600060208201905081810360008301526139818161346e565b9050919050565b600060208201905081810360008301526139a181613491565b9050919050565b600060208201905081810360008301526139c1816134b4565b9050919050565b600060208201905081810360008301526139e1816134d7565b9050919050565b60006020820190508181036000830152613a01816134fa565b9050919050565b60006020820190508181036000830152613a218161351d565b9050919050565b60006020820190508181036000830152613a4181613540565b9050919050565b60006020820190508181036000830152613a6181613563565b9050919050565b60006020820190508181036000830152613a8181613586565b9050919050565b60006020820190508181036000830152613aa1816135a9565b9050919050565b60006020820190508181036000830152613ac1816135cc565b9050919050565b60006020820190508181036000830152613ae1816135ef565b9050919050565b60006020820190508181036000830152613b0181613612565b9050919050565b60006020820190508181036000830152613b2181613635565b9050919050565b60006020820190508181036000830152613b4181613658565b9050919050565b60006020820190508181036000830152613b618161369e565b9050919050565b60006020820190508181036000830152613b81816136c1565b9050919050565b60006020820190508181036000830152613ba1816136e4565b9050919050565b60006020820190508181036000830152613bc18161372a565b9050919050565b60006020820190508181036000830152613be18161374d565b9050919050565b60006020820190508181036000830152613c0181613770565b9050919050565b60006020820190508181036000830152613c2181613793565b9050919050565b6000602082019050613c3d60008301846137b6565b92915050565b6000613c4d613c5e565b9050613c598282613f0b565b919050565b6000604051905090565b600067ffffffffffffffff821115613c8357613c82614043565b5b613c8c82614072565b9050602081019050919050565b60008190508160005260206000209050919050565b600081519050919050565b600081519050919050565b600082825260208201905092915050565b600081905092915050565b600082825260208201905092915050565b600081905092915050565b6000613d0782613e8d565b9150613d1283613e8d565b9250827fffffffffffffffffffffffffffffffffffffffffffffffffffffffffffffffff03821115613d4757613d46613fb6565b5b828201905092915050565b6000613d5d82613e8d565b9150613d6883613e8d565b925082613d7857613d77613fe5565b5b828204905092915050565b6000613d8e82613e8d565b9150613d9983613e8d565b9250817fffffffffffffffffffffffffffffffffffffffffffffffffffffffffffffffff0483118215151615613dd257613dd1613fb6565b5b828202905092915050565b6000613de882613e8d565b9150613df383613e8d565b925082821015613e0657613e05613fb6565b5b828203905092915050565b6000613e1c82613e6d565b9050919050565b6000613e2e82613e6d565b9050919050565b60008115159050919050565b60007fffffffff0000000000000000000000000000000000000000000000000000000082169050919050565b600073ffffffffffffffffffffffffffffffffffffffff82169050919050565b6000819050919050565b82818337600083830152505050565b60005b83811015613ec4578082015181840152602081019050613ea9565b83811115613ed3576000848401525b50505050565b60006002820490506001821680613ef157607f821691505b60208210811415613f0557613f04614014565b5b50919050565b613f1482614072565b810181811067ffffffffffffffff82111715613f3357613f32614043565b5b80604052505050565b6000613f4782613e8d565b91507fffffffffffffffffffffffffffffffffffffffffffffffffffffffffffffffff821415613f7a57613f79613fb6565b5b600182019050919050565b6000613f9082613e8d565b9150613f9b83613e8d565b925082613fab57613faa613fe5565b5b828206905092915050565b7f4e487b7100000000000000000000000000000000000000000000000000000000600052601160045260246000fd5b7f4e487b7100000000000000000000000000000000000000000000000000000000600052601260045260246000fd5b7f4e487b7100000000000000000000000000000000000000000000000000000000600052602260045260246000fd5b7f4e487b7100000000000000000000000000000000000000000000000000000000600052604160045260246000fd5b6000601f19601f8301169050919050565b7f77726f6e67206d696e742076616c756500000000000000000000000000000000600082015250565b7f6578636565646564206d6178206e6674207065722077616c6c65740000000000600082015250565b7f426f74206973206e6f7420616c6c6f7765640000000000000000000000000000600082015250565b7f455243373231456e756d657261626c653a206f776e657220696e646578206f7560008201527f74206f6620626f756e6473000000000000000000000000000000000000000000602082015250565b7f4552433732313a207472616e7366657220746f206e6f6e20455243373231526560008201527f63656976657220696d706c656d656e7465720000000000000000000000000000602082015250565b7f6d696e74696e67206e6f7420656e61626c656400000000000000000000000000600082015250565b7f4f776e61626c653a206e6577206f776e657220697320746865207a65726f206160008201527f6464726573730000000000000000000000000000000000000000000000000000602082015250565b7f4552433732313a207472616e736665722066726f6d20696e636f72726563742060008201527f6f776e6572000000000000000000000000000000000000000000000000000000602082015250565b7f536f6c64204f7574210000000000000000000000000000000000000000000000600082015250565b7f4552433732313a20746f6b656e20616c7265616479206d696e74656400000000600082015250565b7f546f6f206d616e79207265717565737473206f72207a65726f2072657175657360008201527f7400000000000000000000000000000000000000000000000000000000000000602082015250565b7f4552433732313a207472616e7366657220746f20746865207a65726f2061646460008201527f7265737300000000000000000000000000000000000000000000000000000000602082015250565b7f4552433732313a20617070726f766520746f2063616c6c657200000000000000600082015250565b7f6578636565646564206d61782077616c6c657400000000000000000000000000600082015250565b7f4552433732313a2061646472657373207a65726f206973206e6f74206120766160008201527f6c6964206f776e65720000000000000000000000000000000000000000000000602082015250565b7f6578636565646564206d6178207065722077616c6c6574000000000000000000600082015250565b7f7a65726f20726571756573740000000000000000000000000000000000000000600082015250565b7f4e6f742079657420737461727465640000000000000000000000000000000000600082015250565b7f4552433732313a20617070726f76652063616c6c6572206973206e6f7420746f60008201527f6b656e206f776e6572206e6f7220617070726f76656420666f7220616c6c0000602082015250565b7f4552433732313a206d696e7420746f20746865207a65726f2061646472657373600082015250565b7f2e6a736f6e000000000000000000000000000000000000000000000000000000600082015250565b7f4f776e61626c653a2063616c6c6572206973206e6f7420746865206f776e6572600082015250565b7f4552433732313a20696e76616c696420746f6b656e2049440000000000000000600082015250565b7f4552433732313a20617070726f76616c20746f2063757272656e74206f776e6560008201527f7200000000000000000000000000000000000000000000000000000000000000602082015250565b50565b7f455243373231456e756d657261626c653a20676c6f62616c20696e646578206f60008201527f7574206f6620626f756e64730000000000000000000000000000000000000000602082015250565b7f4552433732313a2063616c6c6572206973206e6f7420746f6b656e206f776e6560008201527f72206e6f7220617070726f766564000000000000000000000000000000000000602082015250565b7f546f6b656e20646f6573206e6f74206578697374210000000000000000000000600082015250565b7f7769746864726177206661696c65640000000000000000000000000000000000600082015250565b6146ad81613e11565b81146146b857600080fd5b50565b6146c481613e35565b81146146cf57600080fd5b50565b6146db81613e41565b81146146e657600080fd5b50565b6146f281613e8d565b81146146fd57600080fd5b5056fea26469706673582212207a66afa5d4a06f514ed721d307ee39dda09cd6ff88c45158c6b3fc00a3b450e464736f6c63430008040033",
  "linkReferences": {},
  "deployedLinkReferences": {}
}