{
  "_format": "hh-sol-artifact-1",
  "contractName": "SafePortNFT",
  "sourceName": "contracts/SafePortNFT.sol",
  "abi": [
    {
      "inputs": [],
      "stateMutability": "nonpayable",
      "type": "constructor"
    },
    {
      "anonymous": false,
      "inputs": [
        {
          "indexed": true,
          "internalType": "address",
          "name": "owner",
          "type": "address"
        },
        {
          "indexed": true,
          "internalType": "address",
          "name": "approved",
          "type": "address"
        },
        {
          "indexed": true,
          "internalType": "uint256",
          "name": "tokenId",
          "type": "uint256"
        }
      ],
      "name": "Approval",
      "type": "event"
    },
    {
      "anonymous": false,
      "inputs": [
        {
          "indexed": true,
          "internalType": "address",
          "name": "owner",
          "type": "address"
        },
        {
          "indexed": true,
          "internalType": "address",
          "name": "operator",
          "type": "address"
        },
        {
          "indexed": false,
          "internalType": "bool",
          "name": "approved",
          "type": "bool"
        }
      ],
      "name": "ApprovalForAll",
      "type": "event"
    },
    {
      "anonymous": false,
      "inputs": [
        {
          "indexed": true,
          "internalType": "uint256",
          "name": "tokenId",
          "type": "uint256"
        },
        {
          "indexed": false,
          "internalType": "address",
          "name": "owner",
          "type": "address"
        },
        {
          "indexed": false,
          "internalType": "address",
          "name": "seller",
          "type": "address"
        },
        {
          "indexed": false,
          "internalType": "uint256",
          "name": "price",
          "type": "uint256"
        },
        {
          "indexed": false,
          "internalType": "bool",
          "name": "currentlyListed",
          "type": "bool"
        }
      ],
      "name": "TokenListedSuccess",
      "type": "event"
    },
    {
      "anonymous": false,
      "inputs": [
        {
          "indexed": true,
          "internalType": "address",
          "name": "from",
          "type": "address"
        },
        {
          "indexed": true,
          "internalType": "address",
          "name": "to",
          "type": "address"
        },
        {
          "indexed": true,
          "internalType": "uint256",
          "name": "tokenId",
          "type": "uint256"
        }
      ],
      "name": "Transfer",
      "type": "event"
    },
    {
      "inputs": [
        {
          "internalType": "address",
          "name": "to",
          "type": "address"
        },
        {
          "internalType": "uint256",
          "name": "tokenId",
          "type": "uint256"
        }
      ],
      "name": "approve",
      "outputs": [],
      "stateMutability": "nonpayable",
      "type": "function"
    },
    {
      "inputs": [
        {
          "internalType": "address",
          "name": "owner",
          "type": "address"
        }
      ],
      "name": "balanceOf",
      "outputs": [
        {
          "internalType": "uint256",
          "name": "",
          "type": "uint256"
        }
      ],
      "stateMutability": "view",
      "type": "function"
    },
    {
      "inputs": [
        {
          "internalType": "string",
          "name": "tokenURI",
          "type": "string"
        },
        {
          "internalType": "address",
          "name": "user_",
          "type": "address"
        }
      ],
      "name": "createToken",
      "outputs": [
        {
          "internalType": "uint256",
          "name": "",
          "type": "uint256"
        }
      ],
      "stateMutability": "payable",
      "type": "function"
    },
    {
      "inputs": [
        {
          "internalType": "uint256",
          "name": "tokenId",
          "type": "uint256"
        }
      ],
      "name": "executeSale",
      "outputs": [],
      "stateMutability": "payable",
      "type": "function"
    },
    {
      "inputs": [],
      "name": "getAllNFTs",
      "outputs": [
        {
          "components": [
            {
              "internalType": "uint256",
              "name": "tokenId",
              "type": "uint256"
            },
            {
              "internalType": "address payable",
              "name": "owner",
              "type": "address"
            },
            {
              "internalType": "address payable",
              "name": "seller",
              "type": "address"
            },
            {
              "internalType": "uint256",
              "name": "price",
              "type": "uint256"
            },
            {
              "internalType": "bool",
              "name": "currentlyListed",
              "type": "bool"
            }
          ],
          "internalType": "struct SafePortNFT.ListedToken[]",
          "name": "",
          "type": "tuple[]"
        }
      ],
      "stateMutability": "view",
      "type": "function"
    },
    {
      "inputs": [
        {
          "internalType": "uint256",
          "name": "tokenId",
          "type": "uint256"
        }
      ],
      "name": "getApproved",
      "outputs": [
        {
          "internalType": "address",
          "name": "",
          "type": "address"
        }
      ],
      "stateMutability": "view",
      "type": "function"
    },
    {
      "inputs": [],
      "name": "getCurrentToken",
      "outputs": [
        {
          "internalType": "uint256",
          "name": "",
          "type": "uint256"
        }
      ],
      "stateMutability": "view",
      "type": "function"
    },
    {
      "inputs": [],
      "name": "getLatestIdToListedToken",
      "outputs": [
        {
          "components": [
            {
              "internalType": "uint256",
              "name": "tokenId",
              "type": "uint256"
            },
            {
              "internalType": "address payable",
              "name": "owner",
              "type": "address"
            },
            {
              "internalType": "address payable",
              "name": "seller",
              "type": "address"
            },
            {
              "internalType": "uint256",
              "name": "price",
              "type": "uint256"
            },
            {
              "internalType": "bool",
              "name": "currentlyListed",
              "type": "bool"
            }
          ],
          "internalType": "struct SafePortNFT.ListedToken",
          "name": "",
          "type": "tuple"
        }
      ],
      "stateMutability": "view",
      "type": "function"
    },
    {
      "inputs": [],
      "name": "getListPrice",
      "outputs": [
        {
          "internalType": "uint256",
          "name": "",
          "type": "uint256"
        }
      ],
      "stateMutability": "view",
      "type": "function"
    },
    {
      "inputs": [
        {
          "internalType": "uint256",
          "name": "tokenId",
          "type": "uint256"
        }
      ],
      "name": "getListedTokenForId",
      "outputs": [
        {
          "components": [
            {
              "internalType": "uint256",
              "name": "tokenId",
              "type": "uint256"
            },
            {
              "internalType": "address payable",
              "name": "owner",
              "type": "address"
            },
            {
              "internalType": "address payable",
              "name": "seller",
              "type": "address"
            },
            {
              "internalType": "uint256",
              "name": "price",
              "type": "uint256"
            },
            {
              "internalType": "bool",
              "name": "currentlyListed",
              "type": "bool"
            }
          ],
          "internalType": "struct SafePortNFT.ListedToken",
          "name": "",
          "type": "tuple"
        }
      ],
      "stateMutability": "view",
      "type": "function"
    },
    {
      "inputs": [],
      "name": "getMyNFTs",
      "outputs": [
        {
          "components": [
            {
              "internalType": "uint256",
              "name": "tokenId",
              "type": "uint256"
            },
            {
              "internalType": "address payable",
              "name": "owner",
              "type": "address"
            },
            {
              "internalType": "address payable",
              "name": "seller",
              "type": "address"
            },
            {
              "internalType": "uint256",
              "name": "price",
              "type": "uint256"
            },
            {
              "internalType": "bool",
              "name": "currentlyListed",
              "type": "bool"
            }
          ],
          "internalType": "struct SafePortNFT.ListedToken[]",
          "name": "",
          "type": "tuple[]"
        }
      ],
      "stateMutability": "view",
      "type": "function"
    },
    {
      "inputs": [
        {
          "internalType": "address",
          "name": "owner",
          "type": "address"
        },
        {
          "internalType": "address",
          "name": "operator",
          "type": "address"
        }
      ],
      "name": "isApprovedForAll",
      "outputs": [
        {
          "internalType": "bool",
          "name": "",
          "type": "bool"
        }
      ],
      "stateMutability": "view",
      "type": "function"
    },
    {
      "inputs": [],
      "name": "name",
      "outputs": [
        {
          "internalType": "string",
          "name": "",
          "type": "string"
        }
      ],
      "stateMutability": "view",
      "type": "function"
    },
    {
      "inputs": [
        {
          "internalType": "uint256",
          "name": "tokenId",
          "type": "uint256"
        }
      ],
      "name": "ownerOf",
      "outputs": [
        {
          "internalType": "address",
          "name": "",
          "type": "address"
        }
      ],
      "stateMutability": "view",
      "type": "function"
    },
    {
      "inputs": [
        {
          "internalType": "address",
          "name": "from",
          "type": "address"
        },
        {
          "internalType": "address",
          "name": "to",
          "type": "address"
        },
        {
          "internalType": "uint256",
          "name": "tokenId",
          "type": "uint256"
        }
      ],
      "name": "safeTransferFrom",
      "outputs": [],
      "stateMutability": "nonpayable",
      "type": "function"
    },
    {
      "inputs": [
        {
          "internalType": "address",
          "name": "from",
          "type": "address"
        },
        {
          "internalType": "address",
          "name": "to",
          "type": "address"
        },
        {
          "internalType": "uint256",
          "name": "tokenId",
          "type": "uint256"
        },
        {
          "internalType": "bytes",
          "name": "data",
          "type": "bytes"
        }
      ],
      "name": "safeTransferFrom",
      "outputs": [],
      "stateMutability": "nonpayable",
      "type": "function"
    },
    {
      "inputs": [
        {
          "internalType": "address",
          "name": "operator",
          "type": "address"
        },
        {
          "internalType": "bool",
          "name": "approved",
          "type": "bool"
        }
      ],
      "name": "setApprovalForAll",
      "outputs": [],
      "stateMutability": "nonpayable",
      "type": "function"
    },
    {
      "inputs": [
        {
          "internalType": "bytes4",
          "name": "interfaceId",
          "type": "bytes4"
        }
      ],
      "name": "supportsInterface",
      "outputs": [
        {
          "internalType": "bool",
          "name": "",
          "type": "bool"
        }
      ],
      "stateMutability": "view",
      "type": "function"
    },
    {
      "inputs": [],
      "name": "symbol",
      "outputs": [
        {
          "internalType": "string",
          "name": "",
          "type": "string"
        }
      ],
      "stateMutability": "view",
      "type": "function"
    },
    {
      "inputs": [
        {
          "internalType": "uint256",
          "name": "tokenId",
          "type": "uint256"
        }
      ],
      "name": "tokenURI",
      "outputs": [
        {
          "internalType": "string",
          "name": "",
          "type": "string"
        }
      ],
      "stateMutability": "view",
      "type": "function"
    },
    {
      "inputs": [
        {
          "internalType": "address",
          "name": "from",
          "type": "address"
        },
        {
          "internalType": "address",
          "name": "to",
          "type": "address"
        },
        {
          "internalType": "uint256",
          "name": "tokenId",
          "type": "uint256"
        }
      ],
      "name": "transferFrom",
      "outputs": [],
      "stateMutability": "nonpayable",
      "type": "function"
    },
    {
      "inputs": [
        {
          "internalType": "uint256",
          "name": "_listPrice",
          "type": "uint256"
        }
      ],
      "name": "updateListPrice",
      "outputs": [],
      "stateMutability": "payable",
      "type": "function"
    }
  ],
  "bytecode": "0x60806040526000600a553480156200001657600080fd5b50604080518082018252600881526714d85999541bdc9d60c21b602080830191825283518085019094526002845261053560f41b908401528151919291620000619160009162000092565b5080516200007790600190602084019062000092565b5050600980546001600160a01b031916331790555062000175565b828054620000a09062000138565b90600052602060002090601f016020900481019282620000c457600085556200010f565b82601f10620000df57805160ff19168380011785556200010f565b828001600101855582156200010f579182015b828111156200010f578251825591602001919060010190620000f2565b506200011d92915062000121565b5090565b5b808211156200011d576000815560010162000122565b600181811c908216806200014d57607f821691505b602082108114156200016f57634e487b7160e01b600052602260045260246000fd5b50919050565b611ea880620001856000396000f3fe6080604052600436106101355760003560e01c806395d89b41116100ab578063c322579c1161006f578063c322579c14610354578063c87b56dd14610367578063d1a88ae514610387578063e0391b091461039c578063e985e9c5146103b1578063ef2d1746146103fa57600080fd5b806395d89b41146102d95780639b1225c4146102ee578063a211937714610301578063a22cb46514610314578063b88d4fde1461033457600080fd5b806342842e0e116100fd57806342842e0e1461020b578063629cb2e41461022b5780636352211e1461024d57806368f1945f1461026d57806370a082311461028c5780638e264590146102ac57600080fd5b806301ffc9a71461013a57806306fdde031461016f578063081812fc14610191578063095ea7b3146101c957806323b872dd146101eb575b600080fd5b34801561014657600080fd5b5061015a610155366004611ab4565b61040f565b60405190151581526020015b60405180910390f35b34801561017b57600080fd5b50610184610461565b6040516101669190611c80565b34801561019d57600080fd5b506101b16101ac366004611b42565b6104f3565b6040516001600160a01b039091168152602001610166565b3480156101d557600080fd5b506101e96101e4366004611a8b565b61051a565b005b3480156101f757600080fd5b506101e961020636600461199d565b610635565b34801561021757600080fd5b506101e961022636600461199d565b610666565b34801561023757600080fd5b50610240610681565b6040516101669190611c32565b34801561025957600080fd5b506101b1610268366004611b42565b6108c4565b34801561027957600080fd5b50600a545b604051908152602001610166565b34801561029857600080fd5b5061027e6102a7366004611951565b610924565b3480156102b857600080fd5b506102cc6102c7366004611b42565b6109aa565b6040516101669190611d33565b3480156102e557600080fd5b50610184610a14565b6101e96102fc366004611b42565b610a23565b61027e61030f366004611aec565b610b87565b34801561032057600080fd5b506101e961032f366004611a51565b610bbf565b34801561034057600080fd5b506101e961034f3660046119d8565b610bce565b6101e9610362366004611b42565b610c00565b34801561037357600080fd5b50610184610382366004611b42565b610c6b565b34801561039357600080fd5b506102cc610d7c565b3480156103a857600080fd5b50610240610df3565b3480156103bd57600080fd5b5061015a6103cc36600461196b565b6001600160a01b03918216600090815260056020908152604080832093909416825291909152205460ff1690565b34801561040657600080fd5b5061027e610f39565b60006001600160e01b031982166380ac58cd60e01b148061044057506001600160e01b03198216635b5e139f60e01b145b8061045b57506301ffc9a760e01b6001600160e01b03198316145b92915050565b60606000805461047090611db0565b80601f016020809104026020016040519081016040528092919081815260200182805461049c90611db0565b80156104e95780601f106104be576101008083540402835291602001916104e9565b820191906000526020600020905b8154815290600101906020018083116104cc57829003601f168201915b5050505050905090565b60006104fe82610f49565b506000908152600460205260409020546001600160a01b031690565b6000610525826108c4565b9050806001600160a01b0316836001600160a01b031614156105985760405162461bcd60e51b815260206004820152602160248201527f4552433732313a20617070726f76616c20746f2063757272656e74206f776e656044820152603960f91b60648201526084015b60405180910390fd5b336001600160a01b03821614806105b457506105b481336103cc565b6106265760405162461bcd60e51b815260206004820152603e60248201527f4552433732313a20617070726f76652063616c6c6572206973206e6f7420746f60448201527f6b656e206f776e6572206e6f7220617070726f76656420666f7220616c6c0000606482015260840161058f565b6106308383610fab565b505050565b61063f3382611019565b61065b5760405162461bcd60e51b815260040161058f90611ce5565b610630838383611097565b61063083838360405180602001604052806000815250610bce565b6060600061068e60075490565b905060008080805b848110156107265733600b60006106ae846001611d41565b81526020810191909152604001600020600101546001600160a01b03161480610701575033600b60006106e2846001611d41565b81526020810191909152604001600020600201546001600160a01b0316145b1561071457610711600185611d41565b93505b8061071e81611deb565b915050610696565b5060008367ffffffffffffffff81111561075057634e487b7160e01b600052604160045260246000fd5b60405190808252806020026020018201604052801561078957816020015b6107766117f8565b81526020019060019003908161076e5790505b50905060005b858110156108ba5733600b60006107a7846001611d41565b81526020810191909152604001600020600101546001600160a01b031614806107fa575033600b60006107db846001611d41565b81526020810191909152604001600020600201546001600160a01b0316145b156108a85761080a816001611d41565b6000818152600b6020908152604091829020825160a0810184528154815260018201546001600160a01b039081169382019390935260028201549092169282019290925260038201546060820152600482015460ff16151560808201528451929550909184908790811061088e57634e487b7160e01b600052603260045260246000fd5b60209081029190910101526108a4600186611d41565b9450505b806108b281611deb565b91505061078f565b5095945050505050565b6000818152600260205260408120546001600160a01b03168061045b5760405162461bcd60e51b8152602060048201526018602482015277115490cdcc8c4e881a5b9d985b1a59081d1bdad95b88125160421b604482015260640161058f565b60006001600160a01b03821661098e5760405162461bcd60e51b815260206004820152602960248201527f4552433732313a2061646472657373207a65726f206973206e6f7420612076616044820152683634b21037bbb732b960b91b606482015260840161058f565b506001600160a01b031660009081526003602052604090205490565b6109b26117f8565b506000908152600b6020908152604091829020825160a0810184528154815260018201546001600160a01b03908116938201939093526002820154909216928201929092526003820154606082015260049091015460ff161515608082015290565b60606001805461047090611db0565b6000818152600b6020526040902060038101546002909101546001600160a01b0316348214610abc576040805162461bcd60e51b81526020600482015260248101919091527f506c65617365207375626d6974207468652061736b696e67207072696365206960448201527f6e206f7264657220746f20636f6d706c65746520746865207075726368617365606482015260840161058f565b6000838152600b6020526040902060048101805460ff1916600117905560020180546001600160a01b03191633179055610afa600880546001019055565b610b05303385611097565b610b0f308461051a565b600954600a546040516001600160a01b039092169181156108fc0291906000818181858888f19350505050158015610b4b573d6000803e3d6000fd5b506040516001600160a01b038216903480156108fc02916000818181858888f19350505050158015610b81573d6000803e3d6000fd5b50505050565b6000610b97600780546001019055565b6000610ba260075490565b9050610bae8382611233565b610bb8818561124d565b9392505050565b610bca3383836112e7565b5050565b610bd83383611019565b610bf45760405162461bcd60e51b815260040161058f90611ce5565b610b81848484846113b6565b6009546001600160a01b03163314610c665760405162461bcd60e51b815260206004820152602360248201527f4f6e6c79206f776e65722063616e20757064617465206c697374696e6720707260448201526269636560e81b606482015260840161058f565b600a55565b6060610c7682610f49565b60008281526006602052604081208054610c8f90611db0565b80601f0160208091040260200160405190810160405280929190818152602001828054610cbb90611db0565b8015610d085780601f10610cdd57610100808354040283529160200191610d08565b820191906000526020600020905b815481529060010190602001808311610ceb57829003601f168201915b505050505090506000610d2660408051602081019091526000815290565b9050805160001415610d39575092915050565b815115610d6b578082604051602001610d53929190611bc6565b60405160208183030381529060405292505050919050565b610d74846113e9565b949350505050565b610d846117f8565b6000610d8f60075490565b6000908152600b6020908152604091829020825160a0810184528154815260018201546001600160a01b03908116938201939093526002820154909216928201929092526003820154606082015260049091015460ff161515608082015292915050565b60606000610e0060075490565b905060008167ffffffffffffffff811115610e2b57634e487b7160e01b600052604160045260246000fd5b604051908082528060200260200182016040528015610e6457816020015b610e516117f8565b815260200190600190039081610e495790505b509050600080805b84811015610f2f57610e7f816001611d41565b6000818152600b6020908152604091829020825160a0810184528154815260018201546001600160a01b039081169382019390935260028201549092169282019290925260038201546060820152600482015460ff161515608082015286519294509091869086908110610f0357634e487b7160e01b600052603260045260246000fd5b6020908102919091010152610f19600185611d41565b9350508080610f2790611deb565b915050610e6c565b5091949350505050565b6000610f4460075490565b905090565b6000818152600260205260409020546001600160a01b0316610fa85760405162461bcd60e51b8152602060048201526018602482015277115490cdcc8c4e881a5b9d985b1a59081d1bdad95b88125160421b604482015260640161058f565b50565b600081815260046020526040902080546001600160a01b0319166001600160a01b0384169081179091558190610fe0826108c4565b6001600160a01b03167f8c5be1e5ebec7d5bd14f71427d1e84f3dd0314c0f7b2291e5b200ac8c7c3b92560405160405180910390a45050565b600080611025836108c4565b9050806001600160a01b0316846001600160a01b0316148061106c57506001600160a01b0380821660009081526005602090815260408083209388168352929052205460ff165b80610d745750836001600160a01b0316611085846104f3565b6001600160a01b031614949350505050565b826001600160a01b03166110aa826108c4565b6001600160a01b03161461110e5760405162461bcd60e51b815260206004820152602560248201527f4552433732313a207472616e736665722066726f6d20696e636f72726563742060448201526437bbb732b960d91b606482015260840161058f565b6001600160a01b0382166111705760405162461bcd60e51b8152602060048201526024808201527f4552433732313a207472616e7366657220746f20746865207a65726f206164646044820152637265737360e01b606482015260840161058f565b61117b600082610fab565b6001600160a01b03831660009081526003602052604081208054600192906111a4908490611d6d565b90915550506001600160a01b03821660009081526003602052604081208054600192906111d2908490611d41565b909155505060008181526002602052604080822080546001600160a01b0319166001600160a01b0386811691821790925591518493918716917fddf252ad1be2c89b69c2b068fc378daa952ba7f163c4a11628f55a4df523b3ef91a4505050565b610bca82826040518060200160405280600081525061145c565b6000828152600260205260409020546001600160a01b03166112c85760405162461bcd60e51b815260206004820152602e60248201527f45524337323155524953746f726167653a2055524920736574206f66206e6f6e60448201526d32bc34b9ba32b73a103a37b5b2b760911b606482015260840161058f565b6000828152600660209081526040909120825161063092840190611826565b816001600160a01b0316836001600160a01b031614156113495760405162461bcd60e51b815260206004820152601960248201527f4552433732313a20617070726f766520746f2063616c6c657200000000000000604482015260640161058f565b6001600160a01b03838116600081815260056020908152604080832094871680845294825291829020805460ff191686151590811790915591519182527f17307eab39ab6107e8899845ad3d59bd9653f200f220920489ca2b5937696c31910160405180910390a3505050565b6113c1848484611097565b6113cd8484848461148f565b610b815760405162461bcd60e51b815260040161058f90611c93565b60606113f482610f49565b600061140b60408051602081019091526000815290565b9050600081511161142b5760405180602001604052806000815250610bb8565b806114358461159c565b604051602001611446929190611bc6565b6040516020818303038152906040529392505050565b61146683836116b6565b611473600084848461148f565b6106305760405162461bcd60e51b815260040161058f90611c93565b60006001600160a01b0384163b1561159157604051630a85bd0160e11b81526001600160a01b0385169063150b7a02906114d3903390899088908890600401611bf5565b602060405180830381600087803b1580156114ed57600080fd5b505af192505050801561151d575060408051601f3d908101601f1916820190925261151a91810190611ad0565b60015b611577573d80801561154b576040519150601f19603f3d011682016040523d82523d6000602084013e611550565b606091505b50805161156f5760405162461bcd60e51b815260040161058f90611c93565b805181602001fd5b6001600160e01b031916630a85bd0160e11b149050610d74565b506001949350505050565b6060816115c05750506040805180820190915260018152600360fc1b602082015290565b8160005b81156115ea57806115d481611deb565b91506115e39050600a83611d59565b91506115c4565b60008167ffffffffffffffff81111561161357634e487b7160e01b600052604160045260246000fd5b6040519080825280601f01601f19166020018201604052801561163d576020820181803683370190505b5090505b8415610d7457611652600183611d6d565b915061165f600a86611e06565b61166a906030611d41565b60f81b81838151811061168d57634e487b7160e01b600052603260045260246000fd5b60200101906001600160f81b031916908160001a9053506116af600a86611d59565b9450611641565b6001600160a01b03821661170c5760405162461bcd60e51b815260206004820181905260248201527f4552433732313a206d696e7420746f20746865207a65726f2061646472657373604482015260640161058f565b6000818152600260205260409020546001600160a01b0316156117715760405162461bcd60e51b815260206004820152601c60248201527f4552433732313a20746f6b656e20616c7265616479206d696e74656400000000604482015260640161058f565b6001600160a01b038216600090815260036020526040812080546001929061179a908490611d41565b909155505060008181526002602052604080822080546001600160a01b0319166001600160a01b03861690811790915590518392907fddf252ad1be2c89b69c2b068fc378daa952ba7f163c4a11628f55a4df523b3ef908290a45050565b6040805160a08101825260008082526020820181905291810182905260608101829052608081019190915290565b82805461183290611db0565b90600052602060002090601f016020900481019282611854576000855561189a565b82601f1061186d57805160ff191683800117855561189a565b8280016001018555821561189a579182015b8281111561189a57825182559160200191906001019061187f565b506118a69291506118aa565b5090565b5b808211156118a657600081556001016118ab565b600067ffffffffffffffff808411156118da576118da611e46565b604051601f8501601f19908116603f0116810190828211818310171561190257611902611e46565b8160405280935085815286868601111561191b57600080fd5b858560208301376000602087830101525050509392505050565b80356001600160a01b038116811461194c57600080fd5b919050565b600060208284031215611962578081fd5b610bb882611935565b6000806040838503121561197d578081fd5b61198683611935565b915061199460208401611935565b90509250929050565b6000806000606084860312156119b1578081fd5b6119ba84611935565b92506119c860208501611935565b9150604084013590509250925092565b600080600080608085870312156119ed578081fd5b6119f685611935565b9350611a0460208601611935565b925060408501359150606085013567ffffffffffffffff811115611a26578182fd5b8501601f81018713611a36578182fd5b611a45878235602084016118bf565b91505092959194509250565b60008060408385031215611a63578182fd5b611a6c83611935565b915060208301358015158114611a80578182fd5b809150509250929050565b60008060408385031215611a9d578182fd5b611aa683611935565b946020939093013593505050565b600060208284031215611ac5578081fd5b8135610bb881611e5c565b600060208284031215611ae1578081fd5b8151610bb881611e5c565b60008060408385031215611afe578182fd5b823567ffffffffffffffff811115611b14578283fd5b8301601f81018513611b24578283fd5b611b33858235602084016118bf565b92505061199460208401611935565b600060208284031215611b53578081fd5b5035919050565b60008151808452611b72816020860160208601611d84565b601f01601f19169290920160200192915050565b805182526020808201516001600160a01b039081169184019190915260408083015190911690830152606080820151908301526080908101511515910152565b60008351611bd8818460208801611d84565b835190830190611bec818360208801611d84565b01949350505050565b6001600160a01b0385811682528416602082015260408101839052608060608201819052600090611c2890830184611b5a565b9695505050505050565b6020808252825182820181905260009190848201906040850190845b81811015611c7457611c61838551611b86565b9284019260a09290920191600101611c4e565b50909695505050505050565b602081526000610bb86020830184611b5a565b60208082526032908201527f4552433732313a207472616e7366657220746f206e6f6e20455243373231526560408201527131b2b4bb32b91034b6b83632b6b2b73a32b960711b606082015260800190565b6020808252602e908201527f4552433732313a2063616c6c6572206973206e6f7420746f6b656e206f776e6560408201526d1c881b9bdc88185c1c1c9bdd995960921b606082015260800190565b60a0810161045b8284611b86565b60008219821115611d5457611d54611e1a565b500190565b600082611d6857611d68611e30565b500490565b600082821015611d7f57611d7f611e1a565b500390565b60005b83811015611d9f578181015183820152602001611d87565b83811115610b815750506000910152565b600181811c90821680611dc457607f821691505b60208210811415611de557634e487b7160e01b600052602260045260246000fd5b50919050565b6000600019821415611dff57611dff611e1a565b5060010190565b600082611e1557611e15611e30565b500690565b634e487b7160e01b600052601160045260246000fd5b634e487b7160e01b600052601260045260246000fd5b634e487b7160e01b600052604160045260246000fd5b6001600160e01b031981168114610fa857600080fdfea2646970667358221220a80bc5716513e017d41e71992e50c9f43cc37acf3523e027d8c60b909f592d0c64736f6c63430008040033",
  "linkReferences": {},
  "deployedLinkReferences": {}
}